{"abi":[{"type":"function","name":"admin","inputs":[],"outputs":[{"name":"","type":"address","internalType":"address"}],"stateMutability":"view"},{"type":"function","name":"approve","inputs":[{"name":"operator","type":"address","internalType":"address"},{"name":"tokenId","type":"uint256","internalType":"uint256"}],"outputs":[],"stateMutability":"payable"},{"type":"function","name":"aviationLevels","inputs":[{"name":"_tokenId","type":"uint256","internalType":"uint256"}],"outputs":[{"name":"","type":"uint256","internalType":"uint256"}],"stateMutability":"view"},{"type":"function","name":"aviationLock","inputs":[{"name":"tokenId","type":"uint256","internalType":"uint256"}],"outputs":[],"stateMutability":"nonpayable"},{"type":"function","name":"aviationMovePoints","inputs":[{"name":"winnerTokenId","type":"uint256","internalType":"uint256"},{"name":"loserTokenId","type":"uint256","internalType":"uint256"}],"outputs":[],"stateMutability":"nonpayable"},{"type":"function","name":"aviationPoints","inputs":[{"name":"_tokenId","type":"uint256","internalType":"uint256"}],"outputs":[{"name":"","type":"uint256","internalType":"uint256"}],"stateMutability":"view"},{"type":"function","name":"aviationUnlock","inputs":[{"name":"tokenId","type":"uint256","internalType":"uint256"}],"outputs":[],"stateMutability":"nonpayable"},{"type":"function","name":"balanceOf","inputs":[{"name":"account","type":"address","internalType":"address"}],"outputs":[{"name":"","type":"uint256","internalType":"uint256"}],"stateMutability":"view"},{"type":"function","name":"claimPot","inputs":[{"name":"tokenId","type":"uint256","internalType":"uint256"}],"outputs":[{"name":"","type":"uint256","internalType":"uint256"}],"stateMutability":"nonpayable"},{"type":"function","name":"claimPot","inputs":[{"name":"account","type":"address","internalType":"address"}],"outputs":[{"name":"","type":"uint256","internalType":"uint256"}],"stateMutability":"nonpayable"},{"type":"function","name":"convertPointsToLevel","inputs":[{"name":"points","type":"uint256","internalType":"uint256"}],"outputs":[{"name":"","type":"uint256","internalType":"uint256"}],"stateMutability":"pure"},{"type":"function","name":"estimateMileageToGain","inputs":[{"name":"myTokenId","type":"uint256","internalType":"uint256"},{"name":"opponentTokenId","type":"uint256","internalType":"uint256"}],"outputs":[{"name":"","type":"uint256","internalType":"uint256"},{"name":"","type":"uint256","internalType":"uint256"}],"stateMutability":"view"},{"type":"function","name":"estimatePointsToMove","inputs":[{"name":"winnerTokenId","type":"uint256","internalType":"uint256"},{"name":"loserTokenId","type":"uint256","internalType":"uint256"}],"outputs":[{"name":"","type":"uint256","internalType":"uint256"}],"stateMutability":"view"},{"type":"function","name":"getApproved","inputs":[{"name":"tokenId","type":"uint256","internalType":"uint256"}],"outputs":[{"name":"","type":"address","internalType":"address"}],"stateMutability":"view"},{"type":"function","name":"getLeagueInfo","inputs":[{"name":"leader","type":"address","internalType":"address"}],"outputs":[{"name":"isLocked","type":"bool","internalType":"bool"},{"name":"leaderExist","type":"bool","internalType":"bool"},{"name":"isWinner","type":"bool","internalType":"bool"},{"name":"tokenIds","type":"uint256[]","internalType":"uint256[]"},{"name":"preLeagueOwnerPercentage","type":"uint256","internalType":"uint256"},{"name":"preNewComerPercentage","type":"uint256","internalType":"uint256"},{"name":"leagueOwnerPercentage","type":"uint256","internalType":"uint256"},{"name":"newComerPercentage","type":"uint256","internalType":"uint256"},{"name":"setPercentageTime","type":"uint256","internalType":"uint256"},{"name":"currentVetoPoint","type":"uint256","internalType":"uint256"},{"name":"totalVetoPoint","type":"uint256","internalType":"uint256"},{"name":"premium","type":"uint256","internalType":"uint256"},{"name":"winnerNewComer","type":"address","internalType":"address"}],"stateMutability":"view"},{"type":"function","name":"getTokenIdPerLevel","inputs":[{"name":"level","type":"uint256","internalType":"uint256"}],"outputs":[{"name":"","type":"uint256[]","internalType":"uint256[]"}],"stateMutability":"view"},{"type":"function","name":"getnewComerInfo","inputs":[{"name":"level","type":"uint256","internalType":"uint256"}],"outputs":[{"name":"claimTime","type":"uint256","internalType":"uint256"},{"name":"newComerId","type":"uint256","internalType":"uint256"},{"name":"owner","type":"address","internalType":"address"},{"name":"point","type":"uint256","internalType":"uint256"},{"name":"leader","type":"address","internalType":"address"}],"stateMutability":"view"},{"type":"function","name":"initialize","inputs":[{"name":"baseURI","type":"string","internalType":"string"},{"name":"protocol","type":"address","internalType":"address"},{"name":"_admin","type":"address","internalType":"address"}],"outputs":[],"stateMutability":"nonpayable"},{"type":"function","name":"isApprovedForAll","inputs":[{"name":"account","type":"address","internalType":"address"},{"name":"operator","type":"address","internalType":"address"}],"outputs":[{"name":"","type":"bool","internalType":"bool"}],"stateMutability":"view"},{"type":"function","name":"isApprovedOrOwner","inputs":[{"name":"spender","type":"address","internalType":"address"},{"name":"tokenId","type":"uint256","internalType":"uint256"}],"outputs":[{"name":"","type":"bool","internalType":"bool"}],"stateMutability":"view"},{"type":"function","name":"isAviationLocked","inputs":[{"name":"tokenId","type":"uint256","internalType":"uint256"}],"outputs":[{"name":"","type":"bool","internalType":"bool"}],"stateMutability":"view"},{"type":"function","name":"isPaused","inputs":[],"outputs":[{"name":"","type":"bool","internalType":"bool"}],"stateMutability":"view"},{"type":"function","name":"league","inputs":[{"name":"","type":"address","internalType":"address"}],"outputs":[{"name":"isLocked","type":"bool","internalType":"bool"},{"name":"leaderExist","type":"bool","internalType":"bool"},{"name":"isWinner","type":"bool","internalType":"bool"},{"name":"preLeagueOwnerPercentage","type":"uint256","internalType":"uint256"},{"name":"preNewComerPercentage","type":"uint256","internalType":"uint256"},{"name":"leagueOwnerPercentage","type":"uint256","internalType":"uint256"},{"name":"newComerPercentage","type":"uint256","internalType":"uint256"},{"name":"setPercentageTime","type":"uint256","internalType":"uint256"},{"name":"currentVetoPoint","type":"uint256","internalType":"uint256"},{"name":"totalVetoPoint","type":"uint256","internalType":"uint256"},{"name":"premium","type":"uint256","internalType":"uint256"},{"name":"winnerNewComer","type":"address","internalType":"address"}],"stateMutability":"view"},{"type":"function","name":"levelToClaimTime","inputs":[{"name":"","type":"uint256","internalType":"uint256"}],"outputs":[{"name":"","type":"uint256","internalType":"uint256"}],"stateMutability":"view"},{"type":"function","name":"levelToNewComerId","inputs":[{"name":"","type":"uint256","internalType":"uint256"}],"outputs":[{"name":"","type":"uint256","internalType":"uint256"}],"stateMutability":"view"},{"type":"function","name":"memberToLeader","inputs":[{"name":"","type":"address","internalType":"address"}],"outputs":[{"name":"","type":"address","internalType":"address"}],"stateMutability":"view"},{"type":"function","name":"metadataBaseURI","inputs":[],"outputs":[{"name":"","type":"string","internalType":"string"}],"stateMutability":"view"},{"type":"function","name":"mint","inputs":[{"name":"leader","type":"address","internalType":"address"},{"name":"referral","type":"address","internalType":"address"},{"name":"expirationTime","type":"uint256","internalType":"uint256"},{"name":"signature","type":"bytes","internalType":"bytes"}],"outputs":[],"stateMutability":"payable"},{"type":"function","name":"mintPaper","inputs":[{"name":"amount","type":"uint256","internalType":"uint256"}],"outputs":[],"stateMutability":"payable"},{"type":"function","name":"mintWithPaper","inputs":[{"name":"leader","type":"address","internalType":"address"}],"outputs":[],"stateMutability":"payable"},{"type":"function","name":"name","inputs":[],"outputs":[{"name":"","type":"string","internalType":"string"}],"stateMutability":"view"},{"type":"function","name":"ownerOf","inputs":[{"name":"tokenId","type":"uint256","internalType":"uint256"}],"outputs":[{"name":"","type":"address","internalType":"address"}],"stateMutability":"view"},{"type":"function","name":"paper","inputs":[],"outputs":[{"name":"","type":"address","internalType":"contract Paper"}],"stateMutability":"view"},{"type":"function","name":"paperBalance","inputs":[{"name":"","type":"address","internalType":"address"}],"outputs":[{"name":"","type":"uint256","internalType":"uint256"}],"stateMutability":"view"},{"type":"function","name":"paperTotalAmount","inputs":[],"outputs":[{"name":"","type":"uint256","internalType":"uint256"}],"stateMutability":"view"},{"type":"function","name":"pot","inputs":[],"outputs":[{"name":"","type":"uint256","internalType":"uint256"}],"stateMutability":"view"},{"type":"function","name":"protocol","inputs":[],"outputs":[{"name":"","type":"address","internalType":"address"}],"stateMutability":"view"},{"type":"function","name":"refundResourcesFromGame","inputs":[{"name":"game","type":"address","internalType":"address"},{"name":"to","type":"address","internalType":"address"},{"name":"ids","type":"uint256[]","internalType":"uint256[]"},{"name":"amounts","type":"uint256[]","internalType":"uint256[]"}],"outputs":[],"stateMutability":"nonpayable"},{"type":"function","name":"registerMetadataURI","inputs":[{"name":"metadataURI","type":"string","internalType":"string"}],"outputs":[],"stateMutability":"nonpayable"},{"type":"function","name":"registerProtocol","inputs":[{"name":"_protocol","type":"address","internalType":"address"}],"outputs":[],"stateMutability":"nonpayable"},{"type":"function","name":"requestResourcesForGame","inputs":[{"name":"from","type":"address","internalType":"address"},{"name":"game","type":"address","internalType":"address"},{"name":"ids","type":"uint256[]","internalType":"uint256[]"},{"name":"amounts","type":"uint256[]","internalType":"uint256[]"}],"outputs":[],"stateMutability":"nonpayable"},{"type":"function","name":"safeTransferFrom","inputs":[{"name":"from","type":"address","internalType":"address"},{"name":"to","type":"address","internalType":"address"},{"name":"tokenId","type":"uint256","internalType":"uint256"}],"outputs":[],"stateMutability":"payable"},{"type":"function","name":"safeTransferFrom","inputs":[{"name":"from","type":"address","internalType":"address"},{"name":"to","type":"address","internalType":"address"},{"name":"tokenId","type":"uint256","internalType":"uint256"},{"name":"data","type":"bytes","internalType":"bytes"}],"outputs":[],"stateMutability":"payable"},{"type":"function","name":"setAdmin","inputs":[{"name":"_admin","type":"address","internalType":"address"}],"outputs":[],"stateMutability":"nonpayable"},{"type":"function","name":"setApprovalForAll","inputs":[{"name":"operator","type":"address","internalType":"address"},{"name":"status","type":"bool","internalType":"bool"}],"outputs":[],"stateMutability":"nonpayable"},{"type":"function","name":"setLeader","inputs":[{"name":"_leader","type":"address","internalType":"address"}],"outputs":[],"stateMutability":"nonpayable"},{"type":"function","name":"setLeagueLockStatus","inputs":[{"name":"isLocked","type":"bool","internalType":"bool"}],"outputs":[],"stateMutability":"nonpayable"},{"type":"function","name":"setPaper","inputs":[{"name":"_paper","type":"address","internalType":"contract Paper"}],"outputs":[],"stateMutability":"nonpayable"},{"type":"function","name":"setPercentage","inputs":[{"name":"_newComerPercentage","type":"uint256","internalType":"uint256"},{"name":"_leagueOwnerPercentage","type":"uint256","internalType":"uint256"}],"outputs":[],"stateMutability":"nonpayable"},{"type":"function","name":"setPremium","inputs":[{"name":"premium","type":"uint256","internalType":"uint256"}],"outputs":[],"stateMutability":"nonpayable"},{"type":"function","name":"signatureUsed","inputs":[{"name":"","type":"bytes","internalType":"bytes"}],"outputs":[{"name":"","type":"bool","internalType":"bool"}],"stateMutability":"view"},{"type":"function","name":"supportsInterface","inputs":[{"name":"interfaceId","type":"bytes4","internalType":"bytes4"}],"outputs":[{"name":"","type":"bool","internalType":"bool"}],"stateMutability":"view"},{"type":"function","name":"symbol","inputs":[],"outputs":[{"name":"","type":"string","internalType":"string"}],"stateMutability":"view"},{"type":"function","name":"tokenByIndex","inputs":[{"name":"index","type":"uint256","internalType":"uint256"}],"outputs":[{"name":"","type":"uint256","internalType":"uint256"}],"stateMutability":"view"},{"type":"function","name":"tokenIdPerLevel","inputs":[{"name":"","type":"uint256","internalType":"uint256"},{"name":"","type":"uint256","internalType":"uint256"}],"outputs":[{"name":"","type":"uint256","internalType":"uint256"}],"stateMutability":"view"},{"type":"function","name":"tokenOfOwnerByIndex","inputs":[{"name":"owner","type":"address","internalType":"address"},{"name":"index","type":"uint256","internalType":"uint256"}],"outputs":[{"name":"","type":"uint256","internalType":"uint256"}],"stateMutability":"view"},{"type":"function","name":"tokenURI","inputs":[{"name":"tokenId","type":"uint256","internalType":"uint256"}],"outputs":[{"name":"","type":"string","internalType":"string"}],"stateMutability":"view"},{"type":"function","name":"totalSupply","inputs":[],"outputs":[{"name":"","type":"uint256","internalType":"uint256"}],"stateMutability":"view"},{"type":"function","name":"transferFrom","inputs":[{"name":"from","type":"address","internalType":"address"},{"name":"to","type":"address","internalType":"address"},{"name":"tokenId","type":"uint256","internalType":"uint256"}],"outputs":[],"stateMutability":"payable"},{"type":"function","name":"vetoLeaderDecision","inputs":[{"name":"tokenId","type":"uint256","internalType":"uint256"}],"outputs":[],"stateMutability":"nonpayable"},{"type":"event","name":"Approval","inputs":[{"name":"owner","type":"address","indexed":true,"internalType":"address"},{"name":"operator","type":"address","indexed":true,"internalType":"address"},{"name":"tokenId","type":"uint256","indexed":true,"internalType":"uint256"}],"anonymous":false},{"type":"event","name":"ApprovalForAll","inputs":[{"name":"owner","type":"address","indexed":true,"internalType":"address"},{"name":"operator","type":"address","indexed":true,"internalType":"address"},{"name":"approved","type":"bool","indexed":false,"internalType":"bool"}],"anonymous":false},{"type":"event","name":"MovePoints","inputs":[{"name":"fromTokenID","type":"uint256","indexed":false,"internalType":"uint256"},{"name":"toTokenID","type":"uint256","indexed":false,"internalType":"uint256"},{"name":"points","type":"uint256","indexed":false,"internalType":"uint256"}],"anonymous":false},{"type":"event","name":"Transfer","inputs":[{"name":"from","type":"address","indexed":true,"internalType":"address"},{"name":"to","type":"address","indexed":true,"internalType":"address"},{"name":"tokenId","type":"uint256","indexed":true,"internalType":"uint256"}],"anonymous":false},{"type":"event","name":"UpdateLevels","inputs":[{"name":"tokenID","type":"uint256","indexed":false,"internalType":"uint256"},{"name":"level","type":"uint256","indexed":false,"internalType":"uint256"}],"anonymous":false},{"type":"error","name":"AddressUtils__NotContract","inputs":[]},{"type":"error","name":"ERC165Base__InvalidInterfaceId","inputs":[]},{"type":"error","name":"ERC721Base__BalanceQueryZeroAddress","inputs":[]},{"type":"error","name":"ERC721Base__ERC721ReceiverNotImplemented","inputs":[]},{"type":"error","name":"ERC721Base__InvalidOwner","inputs":[]},{"type":"error","name":"ERC721Base__MintToZeroAddress","inputs":[]},{"type":"error","name":"ERC721Base__NonExistentToken","inputs":[]},{"type":"error","name":"ERC721Base__NotOwnerOrApproved","inputs":[]},{"type":"error","name":"ERC721Base__NotTokenOwner","inputs":[]},{"type":"error","name":"ERC721Base__SelfApproval","inputs":[]},{"type":"error","name":"ERC721Base__TokenAlreadyMinted","inputs":[]},{"type":"error","name":"ERC721Base__TransferToZeroAddress","inputs":[]},{"type":"error","name":"ERC721Metadata__NonExistentToken","inputs":[]},{"type":"error","name":"EnumerableMap__IndexOutOfBounds","inputs":[]},{"type":"error","name":"EnumerableMap__NonExistentKey","inputs":[]},{"type":"error","name":"EnumerableSet__IndexOutOfBounds","inputs":[]},{"type":"error","name":"SolidStateERC721__PayableApproveNotSupported","inputs":[]},{"type":"error","name":"SolidStateERC721__PayableTransferNotSupported","inputs":[]}],"bytecode":{"object":"0x60808060405234601a576001600055615a5c90816100208239f35b600080fdfe6080604052600436101561001257600080fd5b60003560e01c806301ffc9a7146103d257806306fdde03146103cd578063081812fc146103c8578063095ea7b3146103c35780630ac8970f146103be57806310ec214f146103b9578063127a252e146103b4578063148bf2d5146103af57806318160ddd146103aa57806323b872dd146103a5578063260e40d2146103a0578063263324021461039b57806328ca7444146103965780632eeb87bb146103915780632f10dfda1461038c5780632f745c591461038757806342842e0e14610382578063430c20811461037d5780634331e8dd14610378578063463fd1af1461037357806349ad67821461036e5780634aebc639146103695780634ba2363a146103645780634f6ccce71461035f578063501116c01461035a57806350144767146103555780636010a5e7146103505780636352211e1461034b57806366a47f6314610346578063704b6c021461034157806370a082311461033c57806379e76a42146103375780638c5045f4146103325780638ce744261461032d57806395d89b41146103285780639f3d1a2a14610323578063a22cb4651461031e578063abe38fb814610319578063ace1379114610314578063adb099681461030f578063b187bd261461030a578063b5de30b414610305578063b88d4fde14610300578063bb10c829146102fb578063c2a0426c146102f6578063c87b56dd146102f1578063ce9e3cd8146102ec578063d4d64ef0146102e7578063d83a19e0146102e2578063da38d829146102dd578063dcd957b0146102d8578063dd7a2e85146102d3578063df37a363146102ce578063e985e9c5146102c9578063f103a918146102c4578063f6573d7b146102b0578063f755d23c146102bf578063f851a440146102ba578063f8c587ac146102b55763fdffdd3b146102b057600080fd5b6123f3565b612492565b612469565b61240d565b6122b5565b612270565b612227565b612180565b6120c9565b61209d565b61202f565b611f87565b611dde565b611d12565b611ccb565b611c66565b611bfe565b611b60565b611b3d565b611986565b611968565b611874565b6117b4565b6116fa565b611638565b611602565b6115bd565b61159f565b611578565b611531565b6114a8565b61148a565b611419565b611287565b6111b3565b611162565b611144565b6110e9565b6110cb565b610e2d565b610d09565b610cd4565b610caf565b610c84565b610c35565b610a72565b610a35565b6109a5565b610951565b610917565b6108c0565b610894565b61081a565b610721565b6106f8565b6105ef565b6105ae565b6104b7565b6103ee565b6001600160e01b03198116036103e957565b600080fd5b346103e95760203660031901126103e95760043561040b816103d7565b63ffffffff60e01b166000527ffc606c433378e3a7e0a6a531deac289b66caa1b4aa8554fd4ab2c6f1570f92d8602052602060ff604060002054166040519015158152f35b60009103126103e957565b60005b83811061046e5750506000910152565b818101518382015260200161045e565b906020916104978151809281855285808601910161045b565b601f01601f1916010190565b9060206104b492818152019061047e565b90565b346103e95760003660031901126103e95760405160006000805160206159c7833981519152546104e681613153565b808452906001811690811561058a575060011461051e575b61051a8361050e81850382610d9f565b604051918291826104a3565b0390f35b6000805160206159c783398151915260009081527f9da0b376ea5eac987e00ddf645ea1acba63ab64b37f9d745b363c22385ad39cb939250905b8082106105705750909150810160200161050e6104fe565b919260018160209254838588010152019101909291610558565b60ff191660208086019190915291151560051b8401909101915061050e90506104fe565b346103e95760203660031901126103e95760206105cc6004356139d7565b6040516001600160a01b039091168152f35b6001600160a01b038116036103e957565b60403660031901126103e957600435610607816105de565b60243590346106e75761061982613c3e565b6001600160a01b0380831692908216918383146106d6578233141590816106bc575b506106ab576106849061066585600052600080516020615927833981519152602052604060002090565b80546001600160a01b0319166001600160a01b03909216919091179055565b7f8c5be1e5ebec7d5bd14f71427d1e84f3dd0314c0f7b2291e5b200ac8c7c3b925600080a4005b632f5de44f60e01b60005260046000fd5b6106d091506106cc903390614c6e565b1590565b3861063b565b63424a22cb60e01b60005260046000fd5b63b56d7c1b60e01b60005260046000fd5b346103e95760403660031901126103e95760206107196024356004356124bb565b604051908152f35b346103e95760203660031901126103e95760043533600052600b60205261075260ff60406000205460081c16612550565b6611c37937e08000811061079357336000908152600b6020526040902061077e9060090154821161258f565b336000908152600b6020526040902060090155005b60405162461bcd60e51b815260206004820152602560248201527f7072656d69756d206d7573742067726561746572207468616e20302e3030352060448201526432ba3432b960d91b6064820152608490fd5b906020808351928381520192019060005b8181106108045750505090565b82518452602093840193909201916001016107f7565b346103e95760203660031901126103e957600435600052600960205261051a61084660406000206125f1565b6040519182916020835260208301906107e6565b6000526000805160206159a7833981519152602052604060002090565b6000526000805160206159e7833981519152602052604060002090565b346103e95760203660031901126103e95760043560005260076020526020604060002054604051908152f35b346103e95760003660031901126103e957602060008051602061596783398151915254604051908152f35b60609060031901126103e957600435610903816105de565b90602435610910816105de565b9060443590565b610920366108eb565b9034610940576109308233613bcc565b156106ab5761093e92614c7d565b005b6322b1813960e01b60005260046000fd5b346103e95760203660031901126103e95760043561096e816105de565b610976613a1e565b6000805160206158e783398151915280546001600160a01b0319166001600160a01b0392909216919091179055005b346103e95760203660031901126103e957602061071960043561263c565b6001600160a01b031660009081527f3c7bf052874fa81625121783266a03507bd2cd48b16e571c01a04e8dd3fb07aa6020526040902090565b6001600160a01b031660009081527f3c7bf052874fa81625121783266a03507bd2cd48b16e571c01a04e8dd3fb07a86020526040902090565b346103e95760203660031901126103e957600435610a52816105de565b60018060a01b031660005260066020526020604060002054604051908152f35b346103e95760403660031901126103e957600435602435336000908152600b602052604090209091610ab1610aac835460ff9060081c1690565b61265a565b601481111580610c2a575b80610c1f575b610acb906126b7565b610ad3613aa1565b610c06575b60009260018301938454905b818110610b9557505060068301610b06610afe8254612855565b4210156128c4565b4290556004830190815460028501556005840191825460038601555555600060078201556008810160008155600b60009201915b835481101561093e5780610b8d610b86610b63610b596001958961220a565b90549060031b1c90565b610b6c8161263c565b610b80828990600052602052604060002090565b5561263c565b84546128b7565b835501610b3a565b80610bd4610bb0610bab610b596001958b61220a565b6129c8565b42610bc5826000526007602052604060002090565b54119081610bda575b506127eb565b01610ae4565b61012c9150610bfe90610bf842916000526007602052604060002090565b546127de565b101538610bce565b610c1a610c156106cc33613af0565b612713565b610ad8565b506014831115610ac2565b50600a811015610abc565b346103e95760203660031901126103e957600435610c5a610c5582614ff4565b61292c565b600052600080516020615947833981519152602052602060ff604060002054166040519015158152f35b346103e95760403660031901126103e9576020610719600435610ca6816105de565b60243590613b9f565b61093e610cbb366108eb565b9060405192610ccb602085610d9f565b6000845261450d565b346103e95760403660031901126103e9576020610cff600435610cf6816105de565b60243590613bcc565b6040519015158152f35b346103e95760203660031901126103e957600435610d26816105de565b610d3b60018060a01b0360035416331461265a565b6001600160a01b03166000908152600b60205260409020805461ff001916610100178155600a600590910155005b634e487b7160e01b600052604160045260246000fd5b604081019081106001600160401b03821117610d9a57604052565b610d69565b90601f801991011681019081106001600160401b03821117610d9a57604052565b6001600160401b038111610d9a57601f01601f191660200190565b929192610de782610dc0565b91610df56040519384610d9f565b8294818452818301116103e9578281602093846000960137010152565b9080601f830112156103e9578160206104b493359101610ddb565b346103e95760603660031901126103e9576004356001600160401b0381116103e957610e5d903690600401610e12565b602435610e69816105de565b60443590610e76826105de565b610e7e61298d565b610e8661298d565b91610e8f613a1e565b60018060a01b03166bffffffffffffffffffffffff60a01b6000805160206158e78339815191525416176000805160206158e78339815191525583516001600160401b038111610d9a57610efa81610ef56000805160206158c783398151915254613153565b6132ed565b6020601f82116001146110335791610f3682610f4b93610f50969561093e99600092611028575b50508160011b916000199060031b1c19161790565b6000805160206158c783398151915255613379565b613496565b6301ffc9a760e01b6000527ffc606c433378e3a7e0a6a531deac289b66caa1b4aa8554fd4ab2c6f1570f92d86020527f3df35b507c5de77f483b4e9b5c258409299a2e6dc816fa76a389e598628b08a5805460ff191660011790556380ac58cd60e01b6000527ffc606c433378e3a7e0a6a531deac289b66caa1b4aa8554fd4ab2c6f1570f92d86020527fb43d465fbb3235c742b9e3b9cd01a3d83e69b74bddf80a5fe3ab089283d1af91805460ff1916600117905560018060a01b03166bffffffffffffffffffffffff60a01b6003541617600355565b015190503880610f21565b6000805160206158c7833981519152600052601f19821695600080516020615a078339815191529660005b8181106110b357509261093e97610f5096959360019383610f4b971061109a575b505050811b016000805160206158c783398151915255613379565b015160001960f88460031b161c1916905538808061107f565b8383015189556001909801976020938401930161105e565b346103e95760203660031901126103e95760206107196004356129c8565b346103e95760403660031901126103e95760243561113260043561112061112c8261112661111787836124bb565b611120836129c8565b90612a14565b956124bb565b916129c8565b60408051928352602083019190915290f35b346103e95760003660031901126103e9576020600254604051908152f35b346103e95760203660031901126103e957600435600080516020615967833981519152548110156111a257611198602091615014565b5054604051908152f35b63022fd82760e31b60005260046000fd5b60203660031901126103e9576004356111d160ff6001541615612a27565b80662386f26fc1000002662386f26fc1000081048203611282576111f6903414612a85565b600554611213906001600160a01b03165b6001600160a01b031690565b803b156103e9576040516340c10f1960e01b815233600482015260248101839052906000908290604490829084905af1801561127d57611262575b61093e61125d346002546128b7565b600255565b80611271600061127793610d9f565b80610450565b8061124e565b612aeb565b6127ab565b346103e95760203660031901126103e957600435336000908152600a60205260409020611357906112c0905b546001600160a01b031690565b916112ea6112e08460018060a01b0316600052600b602052604060002090565b5460081c60ff1690565b806113fa575b6112f99061265a565b61132c611324600661131d8660018060a01b0316600052600b602052604060002090565b0154612864565b421115612af7565b6001600160a01b0383166000908152600b602081905260409091200190600052602052604060002090565b546001600160a01b0382166000908152600b6020526040902061137f906007019182546128b7565b90556001600160a01b0381166000908152600b602052604090206113a690600701546129e6565b6001600160a01b0382166000908152600b6020526040902060080154106113c957005b336000908152600b6020526040808220600201546001600160a01b0393909316825290206005810182905560040155005b506112f9336001600160a01b0361141084613c3e565b161490506112f0565b60803660031901126103e957600435611431816105de565b60243561143d816105de565b606435916044356001600160401b0384116103e957366023850112156103e9578360040135926001600160401b0384116103e95736602485870101116103e957602461093e950192612b59565b346103e95760203660031901126103e95760206105cc600435613c3e565b346103e95760203660031901126103e9576004356002600054146114ec576114d761051a916002600055612ef8565b60016000556040519081529081906020820190565b60405162461bcd60e51b815260206004820152601f60248201527f5265656e7472616e637947756172643a207265656e7472616e742063616c6c006044820152606490fd5b346103e95760203660031901126103e95760043561154e816105de565b611556613a1e565b600380546001600160a01b0319166001600160a01b0392909216919091179055005b346103e95760203660031901126103e957602061071960043561159a816105de565b6144e4565b346103e95760203660031901126103e957602061071960043561311b565b346103e95760203660031901126103e9576004356115da816105de565b60018060a01b0316600052600a602052602060018060a01b0360406000205416604051908152f35b346103e95760003660031901126103e9576000805160206158e7833981519152546040516001600160a01b039091168152602090f35b346103e95760003660031901126103e95760405160006000805160206159078339815191525461166781613153565b808452906001811690811561058a575060011461168e5761051a8361050e81850382610d9f565b60008051602061590783398151915260009081527f4d5a81d91ab5d0eb928391f3fb432d708f1a8a13471720d8e842441f4faa79d6939250905b8082106116e05750909150810160200161050e6104fe565b9192600181602092548385880101520191019092916116c8565b346103e95760003660031901126103e95760405160006000805160206158c78339815191525461172981613153565b808452906001811690811561058a57506001146117505761051a8361050e81850382610d9f565b6000805160206158c78339815191526000908152600080516020615a07833981519152939250905b8082106117905750909150810160200161050e6104fe565b919260018160209254838588010152019101909291611778565b801515036103e957565b346103e95760403660031901126103e9576004356117d1816105de565b6024356117dd816117aa565b6001600160a01b038216913383146106d6578161181761182892611800336109c3565b9060018060a01b0316600052602052604060002090565b9060ff801983541691151516179055565b60405190151581527f17307eab39ab6107e8899845ad3d59bd9653f200f220920489ca2b5937696c3160203392a3005b6000805160206158e7833981519152546001600160a01b031690565b346103e95760203660031901126103e957600435611891816105de565b6001600160a01b03166000908152600b60205260409020805461051a601082901c60ff16926002810154906003810154600482015460058301546006840154906007850154926008860154946118f5600a600989015498015460018060a01b031690565b976040519b8b60ff808f9e60081c1691168d9a979491926101609a9794919d9c9996936101808d019e15158d52151560208d0152151560408c015260608b015260808a015260a089015260c088015260e087015261010086015261012085015261014084015260018060a01b0316910152565b346103e95760003660031901126103e9576020600454604051908152f35b60203660031901126103e95760043561199e816105de565b6119a733613e61565b9060005b60108110611a2e57506119bd82614206565b6005546119d2906001600160a01b0316611207565b91823b156103e957604051632770a7eb60e21b815233600482015260016024820152926000908490604490829084905af192831561127d5761093e93611a19575b506143ab565b806112716000611a2893610d9f565b38611a13565b806000526007602052604060002054421015611a4d575b6001016119ab565b806000526008602052604060002054611a6581614ff4565b611a70575b50611a45565b611a7990613c3e565b6000805160206158e7833981519152546001600160a01b038083166000908152600a602090815260408083205484168352600b9091529020911692916000808080611ac76002546064900490565b8098828215611b34575bf11561127d57600a611b2e92611aee61125d6001976002546127de565b611aff600160ff1981541617600155565b805462ff00001916620100001781550180546001600160a01b0319166001600160a01b03909216919091179055565b90611a6a565b506108fc611ad1565b346103e95760003660031901126103e957602060ff600154166040519015158152f35b346103e95760203660031901126103e95760246004356000805160206158e7833981519152546040516352897beb60e01b81523360048201529260209184919082906001600160a01b03165afa91821561127d5761093e92611bca91600091611bcf575b506131a2565b61320a565b611bf1915060203d602011611bf7575b611be98183610d9f565b81019061318d565b38611bc4565b503d611bdf565b60803660031901126103e957600435611c16816105de565b60243590611c23826105de565b604435606435926001600160401b0384116103e957611c4961093e943690600401610e12565b9261450d565b90611c626020928281519485920161045b565b0190565b346103e95760203660031901126103e9576004356001600160401b0381116103e957611cb06020611c9d60ff933690600401610e12565b816040519382858094519384920161045b565b600c9082019081520301902054604051911615158152602090f35b346103e95760203660031901126103e957600435611ce8816105de565b611cf0613a1e565b600580546001600160a01b0319166001600160a01b0392909216919091179055005b346103e95760203660031901126103e957600435611d2f81614ff4565b15611d895761050e611d6682611d84611d53611d4d61051a9661085a565b54614571565b611d766040519485926020840190611c4f565b632e706e6760e01b815260040190565b03601f198101845283610d9f565b61475a565b60405162461bcd60e51b815260206004820152602760248201527f4552433732313a2055524920717565727920666f72206e6f6e6578697374656e6044820152663a103a37b5b2b760c91b6064820152608490fd5b346103e95760203660031901126103e9576004356001600160401b0381116103e957611e0e903690600401610e12565b611e16613a1e565b80516001600160401b038111610d9a57611e4281610ef56000805160206158c783398151915254613153565b602091601f8211600114611e8357611e7192600091836110285750508160011b916000199060031b1c19161790565b6000805160206158c783398151915255005b6000805160206158c7833981519152600052601f19821692600080516020615a078339815191529160005b858110611ef157508360019510611ed8575b505050811b016000805160206158c783398151915255005b015160001960f88460031b161c19169055388080611ec0565b91926020600181928685015181550194019201611eae565b98949d9c9a969293611f859c98946101809b9793611f469315158c52151560208c0152151560408b01526101a060608b01526101a08a01906107e6565b608089019d909d5260a088015260c087015260e08601526101008501526101208401526101408301526101608201526001600160a01b03909216910152565b565b346103e95760203660031901126103e957600435611fa4816105de565b6001600160a01b03166000908152600b602052604090208054600881901c60ff1690601081901c60ff16926002810154600382015460048301546005840154600685015490600786015492600887015494600988015496600a89015461200f9060018060a01b031690565b9860010161201c906125f1565b6040519c8d9c61051a9c60ff168e611f09565b346103e95760203660031901126103e95760246004356000805160206158e7833981519152546040516352897beb60e01b81523360048201529260209184919082906001600160a01b03165afa91821561127d5761093e9261209891600091611bcf57506131a2565b6135b3565b346103e95760203660031901126103e95760043560005260086020526020604060002054604051908152f35b346103e95760203660031901126103e9576004358060005260076020526040600020549060005260086020526040600020549061210582614ff4565b156121765761051a61211683613c3e565b6001600160a01b038181166000908152600a6020526040902054169061213b8561263c565b6040805195865260208601969096526001600160a01b03918216958501959095526060840194909452909216608082015290819060a0820190565b61051a6000612116565b346103e95760403660031901126103e95760246004356024356000805160206158e7833981519152546040516352897beb60e01b81523360048201529391929160209185919082906001600160a01b03165afa92831561127d5761093e936121ef91600091611bcf57506131a2565b613651565b634e487b7160e01b600052603260045260246000fd5b80548210156122225760005260206000200190600090565b6121f4565b346103e95760403660031901126103e957600435602435906000526009602052604060002080548210156103e9576020916122619161220a565b90549060031b1c604051908152f35b346103e95760403660031901126103e957602060ff6122a9600435612294816105de565b611800602435916122a4836105de565b6109c3565b54166040519015158152f35b346103e95760203660031901126103e9576122d560043561159a816105de565b600080915b8083106122ec57604051828152602090f35b906122f78333613b9f565b6002600054146114ec5760019161231561231f926002600055612ef8565b90836000556128b7565b920191906122da565b9080601f830112156103e9578135916001600160401b038311610d9a578260051b906040519361235b6020840186610d9f565b84526020808501928201019283116103e957602001905b82821061237f5750505090565b8135815260209182019101612372565b9060806003198301126103e9576004356123a8816105de565b916024356123b5816105de565b916044356001600160401b0381116103e957826123d491600401612328565b91606435906001600160401b0382116103e9576104b491600401612328565b346103e95761093e6124043661238f565b9291909161384d565b346103e95760203660031901126103e95761093e60043561242d816117aa565b33600052600b60205261244a60ff60406000205460081c16612550565b33600052600b60205260406000209060ff801983541691151516179055565b346103e95760003660031901126103e9576003546040516001600160a01b039091168152602090f35b346103e95760003660031901126103e9576005546040516001600160a01b039091168152602090f35b80158015612548575b156124d0575050600190565b6124dc610c5582614ff4565b6124e8610c5583614ff4565b60008181526000805160206159e7833981519152602052604080822054848352912054600181019081106112825760011c1161253a575061253461252e6104b492610877565b54612873565b60011c90565b6125449150610877565b5490565b5081156124c4565b1561255757565b60405162461bcd60e51b815260206004820152601060248201526f13195859195c881b9bdd08195e1a5cdd60821b6044820152606490fd5b1561259657565b60405162461bcd60e51b815260206004820152602d60248201527f7072656d69756d206f6e6c792062652067726561746572207468616e2070726560448201526c76696f7574207072656d69756d60981b6064820152608490fd5b906040519182815491828252602082019060005260206000209260005b818110612623575050611f8592500383610d9f565b845483526001948501948794506020909301920161260e565b6000526000805160206159e783398151915260205260406000205490565b1561266157565b60405162461bcd60e51b815260206004820152602860248201527f4d6572637572794c6561677565546f75726e616d656e743a205065726d697373604482015267696f6e2064656e7960c01b6064820152608490fd5b156126be57565b60405162461bcd60e51b815260206004820152602760248201527f4d6572637572794c6561677565546f75726e616d656e743a20417267756d656e6044820152663a1022b93937b960c91b6064820152608490fd5b1561271a57565b60405162461bcd60e51b815260206004820152605960248201527f4d6572637572794c6561677565546f75726e616d656e743a20646f6d696e617460448201527f696e67206c65616775652063616e2774206368616e6765207768656e20616e7960648201527f2074696d6572206973206c657373207468616e2031306d696e00000000000000608482015260a490fd5b634e487b7160e01b600052601160045260246000fd5b606403906064821161128257565b60001981019190821161128257565b9190820391821161128257565b156127f257565b60405162461bcd60e51b815260206004820152603560248201527f4d6572637572794c6561677565546f75726e616d656e743a20706173732073656044820152747450657263656e746167652074696d65206c6f636b60581b6064820152608490fd5b90611c20820180921161128257565b90610e10820180921161128257565b906001820180921161128257565b66470de4df82000001908166470de4df8200001161128257565b906002820180921161128257565b906020820180921161128257565b9190820180921161128257565b156128cb57565b60405162461bcd60e51b815260206004820152603360248201527f4d6572637572794c6561677565546f75726e616d656e743a207665746f2077696044820152726e646f7773206469646e27742065787069726560681b6064820152608490fd5b1561293357565b60405162461bcd60e51b815260206004820152601e60248201527f4d657263757279426173653a206e6f6e6578697374656e7420746f6b656e00006044820152606490fd5b60405190612987602083610d9f565b60008252565b6040519061299c604083610d9f565b601782527f4d6572637572794c6561677565546f75726e616d656e740000000000000000006020830152565b6000526000805160206159a783398151915260205260406000205490565b908160011b918083046002149015171561128257565b600281901b91906001600160fe1b0381160361128257565b8181029291811591840414171561128257565b15612a2e57565b60405162461bcd60e51b815260206004820152602960248201527f4d6572637572794c6561677565546f75726e616d656e743a20546f75726e616d604482015268656e7420706175736560b81b6064820152608490fd5b15612a8c57565b60405162461bcd60e51b815260206004820152603160248201527f4d6572637572794c6561677565546f75726e616d656e743a206e6f7420656e6f6044820152701d59da08195d1a195c881d1bc81b5a5b9d607a1b6064820152608490fd5b6040513d6000823e3d90fd5b15612afe57565b60405162461bcd60e51b815260206004820152602d60248201527f4d6572637572794c6561677565546f75726e616d656e743a207665746f20776960448201526c1b991bdddcc8195e1c1a5c9959609a1b6064820152608490fd5b90611f8594939291612b7060ff6001541615612a27565b612bfc565b15612b7c57565b60405162461bcd60e51b815260206004820152603260248201527f4d6572637572794c6561677565546f75726e616d656e743a20206e6f7420656e6044820152711bdd59da08195d1a195c881d1bc81b5a5b9d60721b6064820152608490fd5b8115612be6570490565b634e487b7160e01b600052601260045260246000fd5b936001600160a01b0382169384151593919084612ddf575b505050612c49612c426009612c3b8760018060a01b0316600052600b602052604060002090565b0154612881565b3414612b75565b612c9b84612c5633613e61565b612c5f81614000565b612c9661125d612c8e6009612c868660018060a01b0316600052600b602052604060002090565b0154346127de565b6002546128b7565b6143ab565b81612dcd575b50612d8c57506001600160a01b0381166000908152600b60205260408120600101805482905b808210612d6157505060005b8154811015612d5b57600080808087612d3b88612d36612cf6610b598a8c61220a565b6009612d2f612d13611207611207612d0d8661263c565b95613c3e565b6001600160a01b039097166000908152600b6020526040902090565b0154612a14565b612bdc565b90828215612d52575bf11561127d57600101612cd3565b506108fc612d44565b50505050565b9092612d84600191612d7e612d79610b59888861220a565b61263c565b906128b7565b930190612cc7565b6000808093926009612db1839560018060a01b0316600052600b602052604060002090565b015490828215612dc4575bf11561127d57565b506108fc612dbc565b612dd791506144e4565b151538612ca1565b612de99284613db9565b388080612c14565b15612df857565b60405162461bcd60e51b815260206004820152602260248201527f4d6572637572794c6561677565546f75726e616d656e743a206e6f74206f776e60448201526132b960f11b6064820152608490fd5b15612e4f57565b60405162461bcd60e51b8152602060048201526024808201527f4d6572637572794c6561677565546f75726e616d656e743a2068617320636c616044820152631a5b595960e21b6064820152608490fd5b15612ea757565b60405162461bcd60e51b815260206004820152602360248201527f4d6572637572794c6561677565546f75726e616d656e743a206e6f742077696e6044820152623732b960e91b6064820152608490fd5b612f0181613c3e565b6001600160a01b03811690612f39906112b390612f1f338514612df1565b6001600160a01b03166000908152600a6020526040902090565b6001600160a01b0381166000908152600b60205260409020909290600c810190612f82612f7d6106cc612f76868690600052602052604060002090565b5460ff1690565b612e48565b8054612f939060101c60ff16612ea0565b600a8101546001600160a01b031660018201919060005b8354808210156130a357612fc1610b59838761220a565b808814612fd2575050600101612faa565b939492509495969750506000936000915b81831061308157505050600061303561302e8295612d368496613029613009879861263c565b9161112060025491600461302060058301546127c1565b910154906127de565b612a14565b6064900490565b8097828215613078575bf11561127d576104b49161306b9161305c61125d866002546127de565b90600052602052604060002090565b805460ff19166001179055565b506108fc61303f565b90919461309a600191612d7e612d79610b598a8761220a565b95019190612fe3565b50509095929394915060018060a01b031633146130ef57506001600160a01b0316923384146130d55750505050600090565b6000808061303561302e8295600460025491015490612a14565b9360008080935061303561302e8294600560025491015490612a14565b60001981146112825760010190565b60005b601081111561312e575050601090565b60ff811161128257816001821b1161314e576131499061310c565b61311e565b905090565b90600182811c92168015613183575b602083101461316d57565b634e487b7160e01b600052602260045260246000fd5b91607f1691613162565b908160209103126103e957516104b4816117aa565b156131a957565b60405162461bcd60e51b815260206004820152603360248201527f4d657263757279426173653a206d73672e73656e646572206973206e6f7420616044820152722076616c69642067616d65206164647265737360681b6064820152608490fd5b613216610c5582614ff4565b8060005260008051602061594783398151915260205260ff604060002054161561325e57600052600080516020615947833981519152602052604060002060ff198154169055565b606460405162461bcd60e51b815260206004820152602060248201527f4d657263757279426173653a206176696174696f6e206e6f74206c6f636b65646044820152fd5b634e487b7160e01b600052600060045260246000fd5b916132d29183549060031b91821b91600019901b19161790565b9055565b8181106132e1575050565b600081556001016132d6565b90601f82116132fa575050565b611f85916000805160206158c78339815191526000526020600020906020601f840160051c83019310613335575b601f0160051c01906132d6565b9091508190613328565b9190601f811161334e57505050565b611f85926000526020600020906020601f840160051c8301931061333557601f0160051c01906132d6565b9081516001600160401b038111610d9a576133ba816133a66000805160206159c783398151915254613153565b6000805160206159c783398151915261333f565b602092601f82116001146133fd576133eb929382916000926110285750508160011b916000199060031b1c19161790565b6000805160206159c783398151915255565b6000805160206159c7833981519152600052601f198216937f9da0b376ea5eac987e00ddf645ea1acba63ab64b37f9d745b363c22385ad39cb9160005b86811061347e5750836001959610613465575b505050811b016000805160206159c783398151915255565b015160001960f88460031b161c1916905538808061344d565b9192602060018192868501518155019401920161343a565b9081516001600160401b038111610d9a576134d7816134c360008051602061590783398151915254613153565b60008051602061590783398151915261333f565b602092601f821160011461351a57613508929382916000926110285750508160011b916000199060031b1c19161790565b60008051602061590783398151915255565b600080516020615907833981519152600052601f198216937f4d5a81d91ab5d0eb928391f3fb432d708f1a8a13471720d8e842441f4faa79d69160005b86811061359b5750836001959610613582575b505050811b0160008051602061590783398151915255565b015160001960f88460031b161c1916905538808061356a565b91926020600181928685015181550194019201613557565b6135bf610c5582614ff4565b8060005260008051602061594783398151915260205260ff6040600020541661360c57600052600080516020615947833981519152602052611f856040600020600160ff19825416179055565b60405162461bcd60e51b815260206004820152601c60248201527f4d657263757279426173653a206176696174696f6e206c6f636b6564000000006044820152606490fd5b61366060ff6001541615612a27565b613669816129c8565b90613673836129c8565b9281151580613844575b156136d65761368c818361493a565b613695826129c8565b9361369f826129c8565b81116136c6575b50508282106136b457505050565b6136c1611f8593826140e6565b614b5b565b6136cf91614b5b565b38806136a6565b6136e081836128b7565b816137e3576136ee81610877565b6136f88154612873565b90557f8a266f8b4c8180ee40951225651e54420a9535d774033cd2fad8b53d444ef5756040518061373e8482604060019193929360608101946000825260208201520152565b0390a15b613750611207611207611858565b61375982613c3e565b90803b156103e957604051636c58749160e01b81526001600160a01b03929092166004830152600160248301526000908290604490829084905af1801561127d576137ce575b506137a981614f4f565b6137b281610877565b54156137bf575b5061368c565b6137c89061532a565b386137b9565b8061127160006137dd93610d9f565b3861379f565b6137ec81610877565b6137f681546127cf565b90557f8a266f8b4c8180ee40951225651e54420a9535d774033cd2fad8b53d444ef5756040518061383c8482604060019193929360608101948152600060208201520152565b0390a1613742565b5080151561367d565b6000805160206158e7833981519152546040516352897beb60e01b81523360048201529394929390602090829060249082906001600160a01b03165afa801561127d576138a191600091611bcf57506131a2565b6138af611207611207611858565b803b156103e9578260009186836138dd9560405196879586948593633db0f8ab60e01b85526004850161395c565b03925af1801561127d57613947575b506138fb611207611207611858565b803b156103e957613927936000809460405196879586948593630fbfeffd60e11b855260048501613992565b03925af1801561127d576139385750565b806112716000611f8593610d9f565b80611271600061395693610d9f565b386138ec565b6001600160a01b0390911681526060602082018190526104b4939192613984918401906107e6565b9160408184039101526107e6565b91926139b86020946139c69360018060a01b0316855260808686015260808501906107e6565b9083820360408501526107e6565b906060818303910152600081520190565b6139e081614ff4565b15613a0d57600090815260008051602061592783398151915260205260409020546001600160a01b031690565b63c1b843ef60e01b60005260046000fd5b7fc8fcad8db84d3cc18b4c41d551ea0ee66dd599cde068d998e57d5e09332c1320546001600160a01b03163303613a5157565b60405162461bcd60e51b815260206004820152602260248201527f4c69624469616d6f6e643a204d75737420626520636f6e7472616374206f776e60448201526132b960f11b6064820152608490fd5b60006102584201804211915b6010811115613abe57505050600090565b806000526007602052826040600020549061128257821015613ae857613ae39061310c565b613aad565b505050600190565b600080805260076020527f6d5257204ebe7d88fd91ae87941cb2dd9d8062b64ae5a2bd2d28ec40b9fbf6df5460015b6010811115613b5e5750506112b3612f1f613b47613b4d936000526008602052604060002090565b54613c3e565b6001600160a01b0390811691161490565b8060005260076020528160406000205410613b82575b613b7d9061310c565b613b1f565b915050806000526007602052604060002054613b7d829050613b74565b613ba8906109fc565b908154811015613bbb57610b599161220a565b63e637bf3b60e01b60005260046000fd5b613bd582614ff4565b15613a0d57613be382613c3e565b6001600160a01b038281169082168114938415613c1e575b50508215613c0857505090565b60ff925090611800613c19926109c3565b541690565b919350906001600160a01b0390613c34906139d7565b1614913880613bfb565b6000526000805160206159878339815191526020526040600020548015613c9457613c6c9060001901615014565b50600101546001600160a01b03168015613c835790565b637e1a7d8b60e01b60005260046000fd5b633d547ec560e21b60005260046000fd5b6020908260405193849283378101600c81520301902090565b15613cc557565b606460405162461bcd60e51b815260206004820152602060248201527f44415050446973747269627574696f6e3a207369676e617475726520757365646044820152fd5b15613d1057565b60405162461bcd60e51b815260206004820152602360248201527f44415050446973747269627574696f6e3a20696e76616c6964207369676e617460448201526275726560e81b6064820152608490fd5b15613d6857565b60405162461bcd60e51b815260206004820152602360248201527f44415050446973747269627574696f6e3a207369676e617475726520657870696044820152621c995960ea1b6064820152608490fd5b91613e5c611f859492613e54613e3e61306b96613df6613df160ff6040518a8a82376020818c8101600c815203019020541615151590565b613cbe565b604080516001600160a01b039092166020830190815290820185905290613e2a81606081015b03601f198101835282610d9f565b519020613e38368888610ddb565b90614df1565b6003546001600160a01b03918216911614613d09565b421115613d61565b613ca5565b7f3b36e3c23f7226ff6a8560b4f003b6456caa037dff1f2961b3deb261d5af6a5d5490600182018092116112825760405190613e9e602083610d9f565b600082526001600160a01b038116918215613fef57613ebc84614ff4565b613fde57838281613f1395613edc82613ed76106cc986109fc565b615596565b50613ee78383615452565b5060007fddf252ad1be2c89b69c2b068fc378daa952ba7f163c4a11628f55a4df523b3ef8180a461524c565b613fcd57613f68613f447f3b36e3c23f7226ff6a8560b4f003b6456caa037dff1f2961b3deb261d5af6a5d5461310c565b7f3b36e3c23f7226ff6a8560b4f003b6456caa037dff1f2961b3deb261d5af6a5d55565b613f7a613f748261085a565b60019055565b613f86613f7482610877565b6000808080613faf6112076112076000805160206158e78339815191525460018060a01b031690565b81903415613fc3575b3491f11561127d5790565b6108fc9150613fb8565b639ff10cdd60e01b60005260046000fd5b630d86bb7b60e31b60005260046000fd5b6311f2988d60e11b60005260046000fd5b60005b6010811061401757506001611f8591614290565b806000526007602052604060002054421015614036575b600101614003565b80600052600860205260406000205461404e81614ff4565b614059575b5061402e565b61406290613c3e565b6000805160206158e7833981519152546001600160a01b038083166000908152600a602090815260408083205484168352600b90915290209116929160008080806140b06002546064900490565b80988282156140dd575bf11561127d57600a6140d792611aee61125d6001976002546127de565b90614053565b506108fc6140ba565b919060005b601081106140fe5750611f859192614290565b80600052600760205260406000205442101561411d575b6001016140eb565b80600052600860205260406000205461413581614ff4565b614140575b50614115565b61414990613c3e565b6000805160206158e7833981519152546001600160a01b038083166000908152600a602090815260408083205484168352600b90915290209116929160008080806141976002546064900490565b80988282156141c4575bf11561127d57600a6141be92611aee61125d6001976002546127de565b9061413a565b506108fc6141a1565b805490600160401b821015610d9a57816141ef9160016132d29401815561220a565b819391549060031b91821b91600019901b19161790565b6107084201908142116112825760016000527fb39221ace053465ec3453ce2b36430bd138b997ecea25c1043da0c366812b828919091557fad67d757c34507f157cacfa2e3153e9f260a2244f30428821be7be64587ac55f8190556009602052611f85907f92e85d02570a8092d09a6e3a57665bc3815a2699a4074001bf1ccabf660f5a366141cd565b61070842019182421161128257600019810181811161128257611f85938260005260076020521860406000205580600052600860205281604060002055600052600960205260406000206141cd565b156142e657565b60405162461bcd60e51b815260206004820152602960248201527f4d6572637572794c6561677565546f75726e616d656e743a206c6561646572206044820152681b9bdd08195e1a5cdd60ba1b6064820152608490fd5b1561434457565b60405162461bcd60e51b815260206004820152602560248201527f4d6572637572794c6561677565546f75726e616d656e743a206c65616775654c6044820152641bd8dad95960da1b6064820152608490fd5b80518210156122225760209160051b010190565b90916143d46143cf6112e08560018060a01b0316600052600b602052604060002090565b6142df565b6143fe6143f96106cc612f768660018060a01b0316600052600b602052604060002090565b61433d565b6001600160a01b0383166000908152600b60205260409020614422906001016125f1565b9060005b82518110156144a1576144398184614397565b51841461444857600101614426565b60405162461bcd60e51b815260206004820152602760248201527f4d6572637572794c6561677565546f75726e616d656e743a20616c7265616479604482015266081a9bda5b995960ca1b6064820152608490fd5b0390fd5b509290506144d0611f859260016144ca8460018060a01b0316600052600b602052604060002090565b016141cd565b336000908152600a60205260409020610665565b6001600160a01b038116156144fc57612544906109fc565b630810ff9760e41b60005260046000fd5b929190346109405761451f8233613bcc565b156106ab5783614533838361453897614c7d565b6152cf565b15613fcd57565b9061454982610dc0565b6145566040519182610d9f565b8281528092614567601f1991610dc0565b0190602036910137565b8060009172184f03e93ff9f4daa797ed6e38ed64bf6a1f0160401b8210156146a6575b806d04ee2d6d415b85acef8100000000600a92101561468a575b662386f26fc10000811015614675575b6305f5e100811015614663575b612710811015614653575b6064811015614644575b1015614639575b61462460216145f86001850161453f565b938401015b60001901916f181899199a1a9b1b9c1cb0b131b232b360811b600a82061a8353600a900490565b80156146345761462490916145fd565b505090565b6001909101906145e7565b600290606490049301926145e0565b60049061271090049301926145d6565b6008906305f5e10090049301926145cb565b601090662386f26fc1000090049301926145be565b6020906d04ee2d6d415b85acef810000000090049301926145ae565b506040915072184f03e93ff9f4daa797ed6e38ed64bf6a1f0160401b8104614594565b6000805160206158c783398151915254600092916146e682613153565b916001811690811561474857506001146146fe575050565b6000805160206158c783398151915260009081529293509091600080516020615a078339815191525b8382106147345750500190565b600181602092548486015201910190614727565b60ff1916825250811515909102019150565b61476381614571565b90604051809360208201614776906146c9565b61477f91611c4f565b03601f19810184526147919084610d9f565b61479a8161085a565b546147a490614571565b906147ae90610877565b546147b890614571565b6040516a7b226e616d65223a20222360a81b6020820152938493919291602b85016147e291611c4f565b61088b60f21b8152600201691134b6b0b3b2911d101160b11b8152600a0161480991611c4f565b61088b60f21b81526002016e2261747472696275746573223a205b60881b8152600f01607b60f81b815260010175089d1c985a5d17dd1e5c19488e880893195d995b088b60521b8152601601680113b30b63ab2911d160bd1b815260090161487091611c4f565b611f4b60f21b8152600201607b60f81b815260010175089d1c985a5d17dd1e5c19488e8808941bda5b9d088b60521b8152601601680113b30b63ab2911d160bd1b81526009016148bf91611c4f565b607d60f81b8152600101615d7d60f01b815260020103601f19810182526148e69082610d9f565b6148ef90614e67565b6040517f646174613a6170706c69636174696f6e2f6a736f6e3b6261736536342c0000006020820152908190603d820161492891611c4f565b03601f19810182526104b49082610d9f565b6000805160206158e7833981519152546040516352897beb60e01b815233600482015290602090829060249082906001600160a01b03165afa801561127d5761498a91600091611bcf57506131a2565b61499482826124bb565b9061499e81610877565b6149a98382546128b7565b90556149b483610877565b6149bf8382546127de565b905560408051848152602081018390529081018390527f8a266f8b4c8180ee40951225651e54420a9535d774033cd2fad8b53d444ef57590606090a1614a09611207611207611858565b614a1282613c3e565b90803b156103e957604051636c58749160e01b81526001600160a01b03929092166004830152602482018490526000908290604490829084905af1801561127d57614afa575b50614a67611207611207611858565b91614a7184613c3e565b90833b156103e957604051636c58749160e01b81526001600160a01b039290921660048301526024820152916000908390604490829084905af191821561127d57614ac192614ae5575b50614f4f565b614aca81614f4f565b614ad381610877565b5415614adc5750565b611f859061532a565b806112716000614af493610d9f565b38614abb565b806112716000614b0993610d9f565b38614a58565b634e487b7160e01b600052603160045260246000fd5b80548015614b56576000190190614b51614b3f838361220a565b81929154906000199060031b1b191690565b905555565b614b0f565b9081614b71826000526008602052604060002090565b5414614c4b575b60005b614b8f826000526009602052604060002090565b54811015614c465782614bb582614bb0856000526009602052604060002090565b61220a565b90549060031b1c14614bc957600101614b7b565b611f85925090614c31614c4192614c2b614c16610b59614bf3866000526009602052604060002090565b614c10614c0a886000526009602052604060002090565b546127cf565b9061220a565b91614bb0856000526009602052604060002090565b906132b8565b6000526009602052604060002090565b614b25565b505050565b600081815260086020526040812055600081815260076020526040812055614b78565b60ff91611800613c19926109c3565b8260005260008051602061594783398151915260205260ff60406000205416614dac57614ca983613c3e565b6001600160a01b03908116929082169190828403614d9b576001600160a01b038116938415614d8a57614d0a82614cf588614cf08197614ceb83600099615841565b6109fc565b6154f4565b50614d0385613ed7836109fc565b5084615452565b50614d3f614d2f84600052600080516020615927833981519152602052604060002090565b80546001600160a01b0319169055565b7f8c5be1e5ebec7d5bd14f71427d1e84f3dd0314c0f7b2291e5b200ac8c7c3b9258280a47fddf252ad1be2c89b69c2b068fc378daa952ba7f163c4a11628f55a4df523b3ef600080a4565b6340311a0960e01b60005260046000fd5b630f2db4ad60e01b60005260046000fd5b60405162461bcd60e51b815260206004820152601c60248201527f4d657263757279426173653a20746f6b656e206973206c6f636b6564000000006044820152606490fd5b6104b491614dfe91615069565b9190916150c1565b60405190614e15606083610d9f565b604082527f6768696a6b6c6d6e6f707172737475767778797a303132333435363738392b2f6040837f4142434445464748494a4b4c4d4e4f505152535455565758595a61626364656660208201520152565b805115614f4657614e76614e06565b614e92614e8d614e86845161289b565b6003900490565b6129fc565b91614ea4614e9f846128a9565b61453f565b9283528091815182019060208501935b828110614ef657505050600390510680600114614ee557600214614ed6575090565b603d60f81b6000199091015290565b50613d3d60f01b6001199091015290565b60036004919592939501916001603f845182828260121c16880101518453828282600c1c16880101518385015382828260061c168801015160028501531685010151600382015301939190614eb4565b506104b4612978565b806000526000805160206159a7833981519152602052604060002054816000526000805160206159e7833981519152602052614f8f60406000205461311b565b60008381526000805160206159a78339815191526020526040902081905503614fb55750565b80614fe07fc395ca536a7d0c31298053b2d1c650789f2fa1be74aa683891fb8e2f4b13d0829261085a565b5460408051928352602083019190915290a1565b600052600080516020615987833981519152602052604060002054151590565b600080516020615967833981519152548110156122225760008051602061596783398151915260005260206000209060011b0190600090565b80548210156122225760005260206000209060011b0190600090565b90604181511460001461509757615093916020820151906060604084015193015160001a90615474565b9091565b5050600090600290565b600511156150ab57565b634e487b7160e01b600052602160045260246000fd5b6150ca816150a1565b806150d25750565b6150db816150a1565b600181036151285760405162461bcd60e51b815260206004820152601860248201527f45434453413a20696e76616c6964207369676e617475726500000000000000006044820152606490fd5b615131816150a1565b6002810361517e5760405162461bcd60e51b815260206004820152601f60248201527f45434453413a20696e76616c6964207369676e6174757265206c656e677468006044820152606490fd5b8061518a6003926150a1565b1461519157565b60405162461bcd60e51b815260206004820152602260248201527f45434453413a20696e76616c6964207369676e6174757265202773272076616c604482015261756560f01b6064820152608490fd5b604051906151f0606083610d9f565b603282527131b2b4bb32b91034b6b83632b6b2b73a32b960711b6040837f4552433732313a207472616e7366657220746f206e6f6e20455243373231526560208201520152565b908160209103126103e957516104b4816103d7565b9091813b15613ae8576152956152a393613e1c604051938492630a85bd0160e11b60208501523360248501526000604485015260648401526080608484015260a483019061047e565b61529d6151e1565b91615694565b8051630a85bd0160e11b916001600160e01b0319916152ca91602091810182019101615237565b161490565b92919091823b15615321576152a393613e1c61529592604051948593630a85bd0160e11b602086015233602486015260018060a01b0316604485015260648401526080608484015260a483019061047e565b50505050600190565b600061533582613c3e565b8282527f99574a7094154bb123ae6ae102096f0bf9679b85a5cd1e727aaa0ae5f132e6b46020526040822061536a8154613153565b9081615405575b505061538083614cf0836109fc565b5061538a8361574c565b506153af614d2f84600052600080516020615927833981519152602052604060002090565b6001600160a01b03168282827f8c5be1e5ebec7d5bd14f71427d1e84f3dd0314c0f7b2291e5b200ac8c7c3b9258280a47fddf252ad1be2c89b69c2b068fc378daa952ba7f163c4a11628f55a4df523b3ef8280a4565b601f821160011461541c57839055505b3880615371565b61543c61544d928286526001601f60208820920160051c820191016132d6565b600081815260208120918190559055565b615415565b6104b4916001600160a01b0316906000805160206159678339815191526155f4565b7f7fffffffffffffffffffffffffffffff5d576e7357a4501ddfe92f46681b20a084116154e85760209360009360ff60809460405194855216868401526040830152606082015282805260015afa1561127d576000516001600160a01b038116156154df5790600090565b50600090600190565b50505050600090600390565b91909160009260018201908060005281602052604060002054806155185750505050565b90919293945061552d6000198554018561220a565b90549060031b1c806155466141ef60001985018861220a565b9055600052826020526040600020558254918215614b5657600093615589936000190190615577614b3f838361220a565b90555590600052602052604060002090565b5560019038808080612d5b565b919060009260018101908260005281602052604060002054156155b857505050565b80919293945054600160401b811015610d9a576155df6141ef82600187940185558461220a565b90555491600052602052604060002055600190565b9190600183019281600052836020526040600020548015600014615678575060405161561f81610d7f565b828152602081019384528154600160401b811015610d9a57806001615647920184558361504d565b9190916156735761566d9460019151835551910155549290600052602052604060002090565b55600190565b6132a2565b600193945061568c9250600019019061504d565b500155600090565b803b156157135781600092918360208194519301915af1903d1561570b573d916156bd83610dc0565b926156cb6040519485610d9f565b83523d6000602085013e5b156156df575090565b8151156156ef5750805190602001fd5b60405162461bcd60e51b815290819061449d90600483016104a3565b6060916156d6565b632270d6bf60e21b60005260046000fd5b80548015614b5657600019019061573b828261504d565b615673576001600091828155015555565b6000818152600080516020615987833981519152602052604090205490811561583a5761579a600019600080516020615967833981519152540160008051602061596783398151915261504d565b50906157b8600019840160008051602061596783398151915261504d565b939093615673576157f1838561566d9560009703615827575b505460008051602061598783398151915290600052602052604060002090565b55615809600080516020615967833981519152615724565b60008051602061598783398151915290600052602052604060002090565b81548155600180830154910155386157d1565b5050600090565b6001600160a01b0316156158525750565b6000527f99574a7094154bb123ae6ae102096f0bf9679b85a5cd1e727aaa0ae5f132e6b460205260406000206158888154613153565b9081615892575050565b601f82116001146158a4576000905550565b61543c611f8592826000526001601f6020600020920160051c820191016132d656fe3b36e3c23f7226ff6a8560b4f003b6456caa037dff1f2961b3deb261d5af6a5c3b36e3c23f7226ff6a8560b4f003b6456caa037dff1f2961b3deb261d5af6a5b99574a7094154bb123ae6ae102096f0bf9679b85a5cd1e727aaa0ae5f132e6b23c7bf052874fa81625121783266a03507bd2cd48b16e571c01a04e8dd3fb07a93b36e3c23f7226ff6a8560b4f003b6456caa037dff1f2961b3deb261d5af6a603c7bf052874fa81625121783266a03507bd2cd48b16e571c01a04e8dd3fb07a63c7bf052874fa81625121783266a03507bd2cd48b16e571c01a04e8dd3fb07a73b36e3c23f7226ff6a8560b4f003b6456caa037dff1f2961b3deb261d5af6a5e99574a7094154bb123ae6ae102096f0bf9679b85a5cd1e727aaa0ae5f132e6b13b36e3c23f7226ff6a8560b4f003b6456caa037dff1f2961b3deb261d5af6a5f01cd02c8487a919a79d7c5850dcad891324a59b5d8cc91182f4234a539293409a2646970667358221220e0430666be051adcbb038c849e83948d3fbe84433d018895083d6a3343fab53c64736f6c634300081a0033","linkReferences":{}},"methodIdentifiers":{"admin()":"f851a440","approve(address,uint256)":"095ea7b3","aviationLevels(uint256)":"49ad6782","aviationLock(uint256)":"d83a19e0","aviationMovePoints(uint256,uint256)":"dd7a2e85","aviationPoints(uint256)":"26332402","aviationUnlock(uint256)":"b5de30b4","balanceOf(address)":"70a08231","claimPot(address)":"f103a918","claimPot(uint256)":"66a47f63","convertPointsToLevel(uint256)":"79e76a42","estimateMileageToGain(uint256,uint256)":"4aebc639","estimatePointsToMove(uint256,uint256)":"0ac8970f","getApproved(uint256)":"081812fc","getLeagueInfo(address)":"d4d64ef0","getTokenIdPerLevel(uint256)":"127a252e","getnewComerInfo(uint256)":"dcd957b0","initialize(string,address,address)":"463fd1af","isApprovedForAll(address,address)":"e985e9c5","isApprovedOrOwner(address,uint256)":"430c2081","isAviationLocked(uint256)":"2f10dfda","isPaused()":"b187bd26","league(address)":"abe38fb8","levelToClaimTime(uint256)":"148bf2d5","levelToNewComerId(uint256)":"da38d829","memberToLeader(address)":"8c5045f4","metadataBaseURI()":"9f3d1a2a","mint(address,address,uint256,bytes)":"6010a5e7","mintPaper(uint256)":"501116c0","mintWithPaper(address)":"adb09968","name()":"06fdde03","ownerOf(uint256)":"6352211e","paper()":"f8c587ac","paperBalance(address)":"28ca7444","paperTotalAmount()":"ace13791","pot()":"4ba2363a","protocol()":"8ce74426","refundResourcesFromGame(address,address,uint256[],uint256[])":"fdffdd3b","registerMetadataURI(string)":"ce9e3cd8","registerProtocol(address)":"260e40d2","requestResourcesForGame(address,address,uint256[],uint256[])":"f6573d7b","safeTransferFrom(address,address,uint256)":"42842e0e","safeTransferFrom(address,address,uint256,bytes)":"b88d4fde","setAdmin(address)":"704b6c02","setApprovalForAll(address,bool)":"a22cb465","setLeader(address)":"4331e8dd","setLeagueLockStatus(bool)":"f755d23c","setPaper(address)":"c2a0426c","setPercentage(uint256,uint256)":"2eeb87bb","setPremium(uint256)":"10ec214f","signatureUsed(bytes)":"bb10c829","supportsInterface(bytes4)":"01ffc9a7","symbol()":"95d89b41","tokenByIndex(uint256)":"4f6ccce7","tokenIdPerLevel(uint256,uint256)":"df37a363","tokenOfOwnerByIndex(address,uint256)":"2f745c59","tokenURI(uint256)":"c87b56dd","totalSupply()":"18160ddd","transferFrom(address,address,uint256)":"23b872dd","vetoLeaderDecision(uint256)":"50144767"},"id":0}